:100000000C942A000C9447000C9447000C94470071
:100010000C9447000C9447000C9447000C94470044
:100020000C9447000C9447000C9447000C94470034
:100030000C9447000C9447000C9447000C94470024
:100040000C9447000C9447000C9447000C94470014
:100050000C94470011241FBECFE5D8E0DEBFCDBF12
:1000600010E0A0E6B0E0E8EEF2E002C005900D92EC
:10007000A036B107D9F710E0A0E6B0E001C01D92AC
:10008000A336B107E1F70E9498000C9472010C941A
:100090000000369A3699FECF08951ABA8FEF84BBC6
:1000A00083E487B986E886B908951ABA8FEF84BBCE
:1000B00083E487B986E886B980E487B9369A3699A9
:1000C000FECF84B195B120E030E08739910514F07E
:1000D00021E030E081E487B9369A3699FECF84B1C9
:1000E00095B1873991050CF0226082E487B9369A80
:1000F0003699FECF84B195B1873991050CF0246013
:1001000083E487B9369A3699FECF84B195B18739A1
:1001100091050CF0286084E487B9369A3699FECFB1
:1001200084B195B1873991050CF02161C901089519
:100130006F927F928F929F92AF92BF92CF92DF92F7
:10014000EF92FF920F931F93CF93DF938FEF81BBBB
:1001500084BB85BB15BA88EE93E020E931E0F90154
:100160003197F1F70197D9F79FEF95BB85E382BBF4
:1001700081EA8FBD81E08EBD1DBC9CBD1BBC1ABC3D
:1001800019BC18BC2FEFEFEFC0E0D0E0EE24FF2445
:1001900063E3D62ECC24CA940CE315E354E1852EF8
:1001A000912C4CEEA42E4FEFB42E30EA632E3FE09C
:1001B000732EE114F10409F089C00E945500BC01BE
:1001C00085BB8430910521F412BB40E050E016C09D
:1001D0008630910521F412BB41E050E012C082301C
:1001E000910521F412BB41E050E012C0813091052D
:1001F00021F412BB43E050E011C0AE016C30710538
:1002000019F06830710521F412BB4FEF5FEF06C0A3
:100210006031710519F412BB4DEF5FEF9A012C1B91
:100220003D0B93E0220F331F9A95E1F7822F489DF3
:100230009001499D300D589D300D1124E22FEE5252
:10024000E80F4A9D90014B9D300D5A9D300D1124B1
:100250002E52280F6F30710521F4D2BA2FEFEFEF35
:1002600015C06730710521F4D2BA2FEFEFEF11C03E
:100270006330710521F4D2BA2FEFEFEF0DC06E316C
:10028000710521F402BB2FEFEFEF1FC0683171053C
:1002900091F06C31710579F06F31710541F412BB49
:1002A000EA012FEFEFEF81E0E82EF12C0FC0672B72
:1002B00061F457FF02C002BB04C04115510529F08B
:1002C000D2BAEA012FEFEFEF01C0EA011BBCEABD91
:1002D00019BC28BDC1BAC3010197F1F76ACF0895CF
:0802E00081E00895F894FFCFBE
:00000001FF
